:100000000C94F6000C941E010C941E010C941E011D
:100010000C941E010C941E010C941E010C94A70656
:100020000C941E010C941E010C941E010C941E01D4
:100030000C941E010C941E010C941E010C941E01C4
:100040000C945D060C941E010C942B060C94050672
:100050000C941E010C941E010C941E010C941E01A4
:100060000C947C070C941E01084AD73B3BCE016ED2
:1000700084BCBFFDC12F3D6C74319ABD56833DDAFF
:100080003D00C77F11BED9E4BB4C3E916BAAAABE0E
:10009000000000803F0000407A10F35A00A0724E2A
:1000A00018090010A5D4E80000E87648170000E41D
:1000B0000B54020000CA9A3B000000E1F505000065
:1000C00080969800000040420F000000A0860100CA
:1000D0000000102700000000E8030000000064009A
:1000E000000000000A000000000001000000000005
:1000F0002C76D888DC674F0823DFC1DFAE59E1B129
:10010000B796E5E3E453C63AE651997696E8E6C237
:100110008426EB898C9B62ED407C6FFCEFBC9C9F3E
:1001200040F2BAA56FA5F490055A2AF75C936B6C60
:10013000F9676DC11BFCE0E40D47FEF520E6B50054
:10014000D0ED902E0300943577050080841E0800C2
:1001500000204E0A000000C80C333333330F986E72
:1001600012831141EF8D2114893BE65516CFFEE62F
:10017000DB18D1844B381BF77C1D901DA4BBE424F5
:10018000203284725E228100C9F124ECA1E53D2772
:1001900000000000230026002900000000002400C9
:1001A00027002A0000000000250028002B0004047E
:1001B000040404040404020202020202030303030F
:1001C00003030102040810204080010204081020EB
:1001D00001020408102000000008000201000003D2
:1001E000040700000000000000009B0811241FBE4F
:1001F000CFEFD8E0DEBFCDBF23E0ACE5B1E001C07A
:100200001D92AF3AB207E1F711E0A0E0B1E0E6E3FA
:10021000F7E202C005900D92AC35B107D9F710E0B6
:10022000C6EFD0E004C02197FE010E94A111C53F96
:10023000D107C9F70E940F090C9499130C94000080
:1002400008950895AF92BF92CF92DF92EF92FF92FE
:100250000F931F93CF93DF936C017B018B01040FEE
:10026000151FEB015E01AE18BF08C017D10759F08A
:100270006991D601ED91FC910190F081E02DC601CC
:100280000995892B79F7C501DF91CF911F910F91C6
:10029000FF90EF90DF90CF90BF90AF900895FC015A
:1002A000538D448D252F30E0842F90E0821B930BDB
:1002B000541710F0CF96089501970895FC01918D81
:1002C000828D981761F0A28DAE0FBF2FB11D5D9684
:1002D0008C91928D9F5F9F73928F90E008958FEF26
:1002E0009FEF0895FC01918D828D981731F0828DDA
:1002F000E80FF11D858D90E008958FEF9FEF089531
:10030000FC01918D228D892F90E0805C9F4F821B94
:1003100091098F739927089583E292E00E948001EA
:1003200021E0892B09F420E0822F089580E090E0FD
:10033000892B29F00E948C0181110C9400000895F2
:10034000FC01A48DA80FB92FB11DA35ABF4F2C914A
:10035000848D90E001968F739927848FA689B78941
:100360002C93A089B1898C91837080648C93938D38
:10037000848D981306C00288F389E02D80818F7DDB
:1003800080830895EF92FF920F931F93CF93DF9393
:10039000EC0181E0888F9B8D8C8D98131AC0E889C1
:1003A000F989808185FF15C09FB7F894EE89FF8990
:1003B0006083E889F98980818370806480839FBF2E
:1003C00081E090E0DF91CF911F910F91FF90EF902E
:1003D0000895F62E0B8D10E00F5F1F4F0F7311273E
:1003E000E02E8C8D8E110CC00FB607FCFACFE88979
:1003F000F989808185FFF5CFCE010E94A001F1CF60
:10040000EB8DEC0FFD2FF11DE35AFF4FF0829FB7EC
:10041000F8940B8FEA89FB8980818062CFCFCF93DC
:10042000DF93EC01888D8823B9F0AA89BB89E8891C
:10043000F9898C9185FD03C0808186FD0DC00FB6C2
:1004400007FCF7CF8C9185FFF2CF808185FFEDCF40
:10045000CE010E94A001E9CFDF91CF9108958330B2
:1004600081F028F4813099F08230A9F00895873026
:10047000A9F08830C9F08430B1F4809180008F7D7C
:1004800003C0809180008F7780938000089584B5A9
:100490008F7784BD089584B58F7DFBCF8091B000A8
:1004A0008F778093B00008958091B0008F7DF9CF51
:1004B0001F93CF93DF93282F30E0F901EA52FE4FCC
:1004C0008491F901EE53FE4FD491F901E255FE4FAC
:1004D000C491CC23A9F0162F81110E942F02EC2F7A
:1004E000F0E0EE0FFF1FEC55FE4FA591B4918FB7D2
:1004F000F894EC91111108C0D095DE23DC938FBFE6
:10050000DF91CF911F910895DE2BF8CFCF93DF932A
:1005100090E0FC01EE53FE4F249182559E4FFC016A
:1005200084918823D1F090E0880F991FFC01E65652
:10053000FE4FA591B491FC01EC55FE4FC591D491AD
:1005400061110EC09FB7F8948C91E22FE0958E2335
:100550008C932881E223E8839FBFDF91CF91089598
:100560008FB7F894EC91E22BEC938FBFF6CF3FB7A7
:10057000F8948091A5019091A601A091A701B09156
:10058000A80126B5A89B05C02F3F19F00196A11D13
:10059000B11D3FBFBA2FA92F982F8827BC01CD01CD
:1005A000620F711D811D911D42E0660F771F881F2C
:1005B000991F4A95D1F708958F929F92AF92BF925B
:1005C000CF92DF92EF92FF924B015C010E94B70243
:1005D0006B017C010E94B7026C197D098E099F098D
:1005E000683E734081059105A8F321E0821A9108C5
:1005F000A108B10888EEC80E83E0D81EE11CF11CEA
:1006000081149104A104B10429F7FF90EF90DF90C9
:10061000CF90BF90AF909F908F90089520917D01D3
:10062000260F3327331F21323105ECF42091F901D5
:10063000FC0190E080E0243069F082E00895A09110
:100640007D012191AC01435A5E4FA40FB52FB11D1E
:100650002C930196861798F380917D01680F609323
:100660007D0180E0089581E008951092F90181E014
:100670008093F8011092D30161E082E10E94580258
:1006800061E083E10E945802E9EBF0E080818E7F17
:10069000808380818D7F808388E48093B80085E4A7
:1006A0008093BC000895CF93DF9391E090935C0119
:1006B0008823B9F0C091B800D091BA008091BC00F5
:1006C0008A7B8093BC0060E082E10E94580260E077
:1006D00083E10E9458020E943503D093BA00C09370
:1006E000B800DF91CF9108958F929F92AF92BF9201
:1006F000CF92DF92EF92FF920F931F93CF93DF93EE
:10070000D0912202D13208F0D7C0182FC091210217
:100710000E94B7026B017C018091F90181116BC0CD
:1007200082E08093F9011093F8018FEF8093F70135
:100730001092F601D093F501A1E0B2E0E5EDF1E011
:1007400080E0D81391C01092D4018091D401CC0FD5
:10075000C82BC093D4018091D301813009F088C0A7
:100760001092D3010E94B7026B017C018091D401E9
:100770008093BB008091FB019091FC01A091FD0151
:10078000B091FE01892B8A2B8B2BA1F00E94B7021E
:100790000091FB011091FC012091FD013091FE01BF
:1007A0006C197D098E099F09061717072807390755
:1007B00008F442C08091BC0083FDD8CF85EC8093C3
:1007C000BC000E94B7026B017C018091F90182306C
:1007D00009F450C08091F7018F3F09F46FC08091F8
:1007E000F701803209F46CC08091F701803309F47D
:1007F00069C084E026C08091FB019091FC01A0912A
:10080000FD01B091FE01892B8A2B8B2B09F484CF3B
:100810000E94B7028090FB019090FC01A090FD0126
:10082000B090FE016C197D098E099F098616970606
:10083000A806B90608F070CF8091FA010E94530310
:1008400085E010920002109222021092FF01DF91C7
:10085000CF911F910F91FF90EF90DF90CF90BF90BD
:10086000AF909F908F9008959D9191938F5F69CFE6
:1008700085EEA5CF8091FB019091FC01A091FD0137
:10088000B091FE01892B8A2B8B2B09F49ECF0E94FD
:10089000B7020091FB011091FC012091FD01309104
:1008A000FE016C197D098E099F0906171707280795
:1008B000390708F08ACFC0CF81E0C3CF80E0C1CF35
:1008C00082E0BFCF83E0BDCF0895E091AE0180917B
:1008D000AD01E81730F4F0E0E155FE4F808190E083
:1008E00008958FEF9FEF08959091AE018091AD0133
:1008F0002FEF3FEF981748F4E92FF0E0E155FE4F56
:10090000208130E09F5F9093AE01C90108958091EE
:10091000AD019091AE01891B990B0895CF92DF92A2
:10092000EF92FF920F931F93CF93DF937C01CB0144
:100930008A012091FF01222389F0EB016B01C40E93
:10094000D51ECC15DD0569F06991D701ED91FC91BB
:100950000190F081E02DC7010995F3CF642F0E942B
:100960000E03C801DF91CF911F910F91FF90EF907F
:10097000DF90CF900895CF93DF931F92CDB7DEB76E
:1009800069832091FF012223F9F020912202203275
:1009900058F021E030E0FC013383228390E080E0D6
:1009A0000F90DF91CF91089580910002E82FF0E041
:1009B000EF5FFD4F998190838F5F8093000280935A
:1009C000220281E090E0ECCF61E0CE0101960E942E
:1009D0000E03F7CFCF93C62F9091000121E0209313
:1009E000FF01909321021092000210922202682FC0
:1009F00080EC92E00E94BB046C2F80EC92E00E949D
:100A0000BB0481E0CF910C947403FC01248131E09C
:100A10003093FF01209321021092000210922202D3
:100A20008385682B80EC92E00E94BB0481E00C94EB
:100A30007403089590E080E00895CF93DF93EC0174
:100A400088819981009711F00E94431219821882BF
:100A50001D821C821B821A82DF91CF910895FB01B7
:100A600001900020E9F73197AF01461B570BDC01DD
:100A7000ED91FC910280F381E02D09940F931F9377
:100A8000CF938C01C62F0E9405056C2F6460C801AE
:100A90000E9405056C2F6B7FC8010E94050583EC41
:100AA00090E00197F1F7CF911F910F9108950F9367
:100AB0001F93CF93DF938C01D62FC42F607F642BBD
:100AC0000E943E0580E1D89FB00111246C2BC80123
:100AD000DF91CF911F910F910C943E05CF93DF933F
:100AE000CDB7DEB728970FB6F894DEBF0FBECDBFE7
:100AF00098E0E7E0F1E0DE01119601900D929A9501
:100B0000E1F79091A703981708F48FEF90E0880F12
:100B1000991F21E030E02C0F3D1F820F931FFC0135
:100B20006081606840E08FE993E028960FB6F89402
:100B3000DEBF0FBECDBFDF91CF910C94570541E0D2
:100B40000E94570581E090E008950F931F93CF9383
:100B5000DF93EC0188819981009759F02A813B81CC
:100B60002617370730F081E0DF91CF911F910F9169
:100B700008958B016F5F7F4F0E94CC12009759F050
:100B8000998388831B830A832C813D81232B59F70A
:100B9000FC011082E8CF80E0E7CF85ED8093BC00B8
:100BA0008091FB019091FC01A091FD01B091FE01AB
:100BB0000796A11DB11D23E0B695A795979587953A
:100BC0002A95D1F72091BC0024FD03C01092F901B1
:100BD00008954091FB015091FC016091FD017091DD
:100BE000FE01452B462B472B69F30097A105B10564
:100BF00041F025E32A95F1F700000197A109B10919
:100C0000E1CF8091FA010C9453031F920F920FB61B
:100C10000F9211242F933F934F935F936F937F9382
:100C20008F939F93AF93BF93EF93FF9383E292E0F1
:100C30000E94A001FF91EF91BF91AF919F918F9181
:100C40007F916F915F914F913F912F910F900FBEC8
:100C50000F901F9018951F920F920FB60F921124AC
:100C60002F938F939F93EF93FF93E0913302F09133
:100C700034028081E0913902F0913A0282FD1BC07A
:100C8000908180913C028F5F8F7320913D0282178B
:100C900041F0E0913C02F0E0ED5DFD4F958F8093D7
:100CA0003C02FF91EF919F918F912F910F900FBE7A
:100CB0000F901F9018958081F4CF1F920F920FB65E
:100CC0000F9211242F933F938F939F93AF93BF93D2
:100CD0008091A1019091A201A091A301B091A401E2
:100CE0003091A00123E0230F2D3758F50196A11D67
:100CF000B11D2093A0018093A1019093A201A09324
:100D0000A301B093A4018091A5019091A601A091A7
:100D1000A701B091A8010196A11DB11D8093A50165
:100D20009093A601A093A701B093A801BF91AF91A2
:100D30009F918F913F912F910F900FBE0F901F9019
:100D4000189526E8230F0296A11DB11DD2CF1F9240
:100D50000F920FB60F9211242F933F934F935F93EF
:100D60006F937F938F939F93AF93BF93CF93DF93B3
:100D7000EF93FF932091CD0230E0F901EA52FE4F4C
:100D80008491F901EE53FE4FD491F901E255FE4FE3
:100D9000C491CC2379F081110E942F02EC2FF0E056
:100DA000EE0FFF1FE057FE4FA591B491EC91ED239C
:100DB00021E009F420E04091D2025091D3024F5F2C
:100DC0005F4F5093D3024093D2028091D002909112
:100DD000D1028536910530F031E030939E0333E047
:100DE0003093CC023091CC0231113BC0211107C0AD
:100DF0004436510518F51092D3021092D202809118
:100E0000CF02882341F08091CE0221116DC061E0B4
:100E100081116DC02D9AFF91EF91DF91CF91BF911C
:100E2000AF919F918F917F916F915F914F913F9182
:100E30002F910F900FBE0F901F90189510929E0348
:100E400081E090E09093D1028093D0025093D5023C
:100E50004093D4021092D3021092D2028093CC021B
:100E6000CECF3091CC023130B1F4213041F6BC010B
:100E70006F5F7F4F7093D1026093D002880F991FEC
:100E8000FC01EC52FD4F518340831092D30210922B
:100E9000D20282E0E3CF3091CC023230E1F4211172
:100EA00014C0BC016F5F7F4F7093D1026093D0027A
:100EB000880F991FFC01EC52FD4F51834083109223
:100EC000D3021092D20281E0C9CF4536510508F411
:100ED00096CF83E0C3CF8091CC02833009F08FCFCF
:100EE000222309F488CF8BCF882321F060E00E9471
:100EF000580291CF2D988FCF1F920F920FB60F925D
:100F000011242F933F934F935F936F937F938F930E
:100F10009F93AF93BF93EF93FF938091B900887F26
:100F2000803609F44AC0F0F5883209F4A7C018F5F4
:100F3000803109F49BC0B8F4882309F4F9C08830E3
:100F400009F494C0FF91EF91BF91AF919F918F9160
:100F50007F916F915F914F913F912F910F900FBEB5
:100F60000F901F901895883109F488C0803251F78E
:100F70008093F70114C0803409F49DC040F480339D
:100F8000B9F38833F9F68093F70185ECB0C080356A
:100F900009F485C0883509F496C0883499F60E9412
:100FA000CD05D0CF883909F48CC038F5883729F0C1
:100FB00050F4883611F0803729F683E08093F901E8
:100FC00010929F0157C0883809F47BC0803919F00E
:100FD000803809F0B7CF80919F01803208F071C04E
:100FE000E0919F0181E08E0F80939F018091BB0073
:100FF000F0E0E158FE4F80833DC0803B39F0E0F4E3
:10100000803A09F479C0883A09F09CCF84E0809353
:10101000F90110927E0110927D01E091AB01F091F7
:10102000AC01099580917D0181110FC081E0809311
:101030007D0110925D0109C0803C09F4A6CF883C77
:1010400009F4A3CF883B09F07DCFE0917E0181E0D8
:101050008E0F80937E01F0E0E35AFE4F80818093F3
:10106000BB0090917E0180917D0129C08091D401C7
:101070008093BB0085EC8093BC0064CF9091F60117
:101080008091F501981758F5E091F60181E08E0FF7
:101090008093F601F0E0EB52FE4F8081E9CFE091C2
:1010A000F60181E08E0F8093F6018091BB00F0E0A5
:1010B000EB52FE4F80839091F6018091F5019817D5
:1010C000C8F285E8D8CFE091F60181E08E0F8093D9
:1010D000F6018091BB00F0E0EB52FE4F80838091DF
:1010E000F80181115CCF81E08093D30184EA809381
:1010F000BC001092F90126CF85EC8093BC001092C1
:10110000F90180919F01803230F4E0919F01F0E07D
:10111000E158FE4F108260919F0170E0E091A901BB
:10112000F091AA018FE791E0099510929F010ACFF3
:101130001092F70134CFE3E2F2E01382128288EEDC
:1011400093E0A0E0B0E084839583A683B78323E196
:1011500031E03183208325EC30E03587248724EC8F
:1011600030E03787268720EC30E0318B208B21EC74
:1011700030E0338B228B22EC30E0358B248B26EC55
:1011800030E0378B268B118E128E138E148EE0EC8E
:10119000F2E01382128284839583A683B78385E26B
:1011A00091E091838083EFE9F3E01382128287E379
:1011B00091E09183808387E284838EE081878FE052
:1011C00082871386ECECF2E08CE08183138261E08D
:1011D00084E00E94860261E083E00E94860261E072
:1011E0008EE00E94860261E08FE00E94860261E04C
:1011F0008AE00E94860261E089E00E94860261E046
:1012000088E00E94860261E085E00E94860261E03B
:1012100086E00E94860261E087E00C948602CF930C
:10122000DF93CDB7DEB7A9970FB6F894DEBF0FBE38
:10123000CDBF789484B5826084BD84B5816084BD5F
:1012400085B5826085BD85B5816085BD80916E0064
:10125000816080936E001092810080918100826095
:1012600080938100809181008160809381008091D2
:1012700080008160809380008091B10084608093C1
:10128000B1008091B00081608093B00080917A00BD
:10129000846080937A0080917A00826080937A00E3
:1012A00080917A00816080937A0080917A008068D2
:1012B00080937A001092C100E0913302F0913402E1
:1012C00022E0922E9082E0912F02F0913002108263
:1012D000E0913102F09132028FEC808310923B0258
:1012E000E0913702F091380286E08083E091350288
:1012F000F0913602808180618083E0913502F09127
:101300003602808188608083E0913502F091360258
:10131000808180688083E0913502F091360280817F
:101320008F7D80836FE371E083E292E00E942F055E
:1013300066E471E083E292E00E942F051092AE0114
:101340001092AD0110920002109222020E94350309
:1013500030E2632E31E0732E7092AC016092AB01EB
:1013600001E211E01093AA010093A9018CE180939E
:10137000BA0061E08BE00E94EA046DE189E00E941E
:10138000EA04F8949092B0009092B10084E68093C1
:10139000B3001092B2009092700078941092CC0238
:1013A00060E08091CD020E9486021092AE01109200
:1013B000AD0110920002109222020E943503709239
:1013C000AC016092AB011093AA010093A9011092A5
:1013D000A4038091A903823018F098E09093A403AD
:1013E0008093A70362E370E080E090E00E94DC025B
:1013F0006091AA038FE993E00E94050568EE73E00F
:1014000080E090E00E94DC0260E38FE993E00E94BC
:101410003E050BE416E4C8010197F1F760E38FE99C
:1014200093E00E943E05C8010197F1F760E38FE960
:1014300093E00E943E0583E592E00197F1F760E2B8
:101440008FE993E00E943E056091A403606240E052
:101450008FE993E00E94570584E08093A50340E064
:101460006CE08FE993E00E94570540E061E08FE96E
:1014700093E00E9457050BE31FE1C8010197F1F7C4
:1014800082E08093A60340E066E08FE993E00E944B
:10149000570540E062E08FE993E00E945705C801DC
:1014A0000197F1F788E08093AA0360E08FE993E069
:1014B0000E94050540E061E08FE993E00E94570536
:1014C000C8010197F1F79924939480E0282E80E0D9
:1014D000382E96E0892E809100019092FF01809332
:1014E0002102109200021092220260E080EC92E051
:1014F0000E94BB0481E00E9474038111C0C010915E
:1015000000010E94B7022B013C018091F901811179
:1015100064C09092F9019092F8012FEF2093F701A7
:101520001092F6018092F5019092D4018091D4013D
:10153000110F182B1093D4018091D301813009F041
:101540008CC11092D3010E94B7022B013C01809103
:10155000D4018093BB008091FB019091FC01A0918C
:10156000FD01B091FE01892B8A2B8B2BA1F00E94EB
:10157000B7020091FB011091FC012091FD01309117
:10158000FE016419750986099709061717072807C8
:10159000390708F443C08091BC0083FDD8CF35ECF7
:1015A0003093BC000E94B7022B013C018091F901ED
:1015B000813009F456C18091F601873008F073C17B
:1015C0008091F601A5EDB1E0EFEAF1E090E0981727
:1015D00051F12D9121939F5FFACF8091FB01909162
:1015E000FC01A091FD01B091FE01892B8A2B8B2B70
:1015F00009F48BCF0E94B7022091FB013091FC01CE
:101600004091FD015091FE01641975098609970901
:10161000261737074807590708F077CF8091FA0156
:101620000E94530380E01092AE018093AD0180ECE4
:1016300092E00E9474042C0180EC92E00E947404F9
:10164000D82EC12C96012429352939A728A780EC4A
:1016500092E00E9474047C0180EC92E00E94740489
:10166000A12CEA28F82A80EC92E00E94740480EC15
:1016700092E00E94740480EC92E00E94740428A519
:1016800039A5B901330F880B990B0E94C90E2B01A4
:101690003C01B7010F2C000C880B990B0E94C90E5E
:1016A000A30192010E949D1020E030E044E353E446
:1016B0000E94280F2BED3FE049E450E40E94FC100B
:1016C0002B013C0120E030E0A9010E94C20E87FFFF
:1016D0000AC020E030E044EB53E4C301B2010E94B1
:1016E0001E102B013C012BE734E142E151E4C30120
:1016F000B2010E941D102B013C0120E030E0A90145
:101700000E94C20E87FF0AC020E030E044EB53E4A1
:10171000C301B2010E941E102B013C014092CF0177
:101720005092D0016092D1017092D2016091A503D4
:10173000862F84608093A5036C6040E08FE993E07E
:101740000E94570580E00E946E0569E471E08FE910
:1017500093E00E942F0581E00E946E056091CF0109
:101760007091D0018091D1019091D2011BA21AA257
:101770001DA21CA21FA21EA28E010F5F1F4F22E0FE
:1017800044E00E946D0C3C01009779F0FC0101904F
:101790000020E9F731978F01081B190BB801CE0122
:1017A00082960E94A505811180C0CE0182960E947A
:1017B0001D051A8219821C821B821E821D8267E00F
:1017C00070E0CE0101960E94A505811176C0CE0180
:1017D00001960E941D056AA07BA06114710409F4A2
:1017E00077C00EA11FA101151105B9F08D819E8151
:1017F000080F191FB801CE0101960E94A505882384
:1018000009F466C029813A818D819E81B301820FDE
:10181000931F0E9492131E830D834D815E81698107
:101820007A818FE993E00E94220189819A81009751
:1018300011F00E9443128AA19BA1009711F00E940F
:1018400043122114310409F446CE0E948C018823EE
:1018500009F441CE0E9400003ECE85EE8093BC008C
:10186000A1CE8091FB019091FC01A091FD01B0916E
:10187000FE01892B8A2B8B2B09F498CE0E94B7028C
:101880000091FB011091FC012091FD013091FE01BE
:101890006419750986099709061717072807390774
:1018A00008F084CEBBCE87E08DCE1FA30EA3B3017C
:1018B0008AA19BA10E9492137CCF87E090E09E8337
:1018C0008D8363E571E089819A810E94921383CFB1
:1018D000CE0101960E941D05A0CFEF920F931F939A
:1018E000CF93DF93E80134E047FD34E1042E000C90
:1018F000550B57FF03C0519541955109E32E022F17
:10190000242FAE010E948B0CCE01DF91CF911F914D
:101910000F91EF900895A9E0B0E0E1E9FCE00C94AC
:10192000EC0F6A01F22EB02E102FFBE3AF2EA016A3
:1019300008F41BE31F5F012F27E0AE014F5F5F4FED
:101940000E94EA0DBC018981982F9970913009F4A9
:101950003FC09BE2E1FC04C09E2D9170E0FC3AC0C8
:101960005E2D5071E82FE87083FF46C084E091112E
:1019700001C083E0EF2DE81B8F1508F0E0E0D601F1
:101980008E2F20E2552351F1992329F0D6019C9303
:10199000C60101966C0196012D5F3F4FE2FE24C007
:1019A0008EE4D6018C9391E411969C931197129634
:1019B0008C93D9018E2F90E281111BC0E20FF32F7F
:1019C000F11D10828EEF9FEF2996ECE00C94081029
:1019D0009DE2C6CF90E2C4CF2D9381508111FCCF00
:1019E000CE0ED11CE0E0D0CF8EE6D6018C9391E6EE
:1019F000DBCF9D938150E0CF482F447082FF3DC0E4
:101A000084E0911101C083E08F1510F4EF2DE81BE5
:101A1000D6018E2F20E2552309F1992329F0D60112
:101A20009C93C60101966C0196012D5F3F4FE2FE2B
:101A30001BC089E4D6018C938EE411968C93119788
:101A400086E412968C93D9018E2F90E2882309F4B4
:101A5000B5CF9D938150FACF2D9381508111FCCF4A
:101A6000CE0ED11CE0E0D9CF89E6D6018C938EE66C
:101A700011968C93119786E6E4CF9B0177FF02C005
:101A800030E020E0A1E0B0E0911102C0B0E0A0E0C1
:101A9000F9013196AE0FBF1F8B2C912CBB2009F49E
:101AA00061C05401EFEFAE1ABE0AAA0DBB1DFA16B3
:101AB0001B0619F014F04F2D4A1B511188C0E3FC8E
:101AC00059C07601A42FB0E2A1114FC0C40ED11CA1
:101AD000992309F45BC040E0D6011196F60190838A
:101AE0006D01552309F448C0012F060F9A81582F24
:101AF000507184FF03C0913309F4015010160CF0AB
:101B000047C0093008F008E0EEE2FE2E5B01A01AA3
:101B1000B10885019194819491082F3F320729F4EF
:101B2000D601FC92F60131966F016217730794F1AA
:101B3000021713077CF5DB01A21BB30BAA24A394A5
:101B4000B12CAC0EBD1EAA0DBB1D11968C9121505F
:101B50003109D601119628153905F4F0F601808374
:101B60006D01DBCFB12CA12CA0CFF701B1937F0188
:101B7000A150AACF9111B0CFD601942F50E302C04B
:101B80005D9391509111FCCFC40ED11C40E0ACCFBD
:101B900001E0BACF80E3DBCF6217730731F49633ED
:101BA00088F4953311F4552369F0F6018083FD0123
:101BB000842F90E2811108C0A40FB11D1C9290E007
:101BC00080E002CF81E3F1CF91938150F3CF911167
:101BD00083CF8ACF283008F027E03327DA01990F26
:101BE000311D87FD916000966105710539F4326001
:101BF0002E5F3D9330E32A95E1F708959F3F30F043
:101C000080387105610509F03C5F3C5F3D93913080
:101C100008F08068911DDF93CF931F930F93FF927D
:101C2000EF92192F987F9695E92F96959695E90F43
:101C3000FF27E051FF4F99273327EE24FF24A70108
:101C4000E70105900894079428F4360FE71EF81E64
:101C5000491F511D660F771F881F991F0694A1F712
:101C60000590079428F4E70EF81E491F561FC11D62
:101C7000770F881F991F661F0694A1F70590079498
:101C800028F4F80E491F561FC71FD11D880F991F32
:101C9000661F771F0694A1F70590079420F4490F5B
:101CA000561FC71FD81F990F661F771F881F0694DE
:101CB000A9F784911095177041F0D695C79557955F
:101CC0004795F794E7941A95C1F7E6E9F0E0689430
:101CD0001590159135916591959105907FE27395D9
:101CE000E118F10A430B560BC90BD009C0F7E10C00
:101CF000F11E431F561FC91FD01D7EF4703311F40F
:101D00008A95E6CFE894015030F0080F0AF40027D6
:101D1000021708F4202F2395022F7A3328F079E355
:101D20007D932A95E9F710C07D932A9589F606944C
:101D300097956795379517951794E118F10A430B16
:101D4000560BC90BD00998F023957E9173957A3381
:101D500008F070E37C932013B8F77E9170617D9357
:101D600030F0839571E37D9370E32A95E1F71124B8
:101D7000EF90FF900F911F91CF91DF91992787FDF1
:101D8000909508950E94040F08F481E00895E89466
:101D900009C097FB3EF490958095709561957F4FB3
:101DA0008F4F9F4F9923A9F0F92F96E9BB27939561
:101DB000F695879577956795B795F111F8CFFAF471
:101DC000BB0F11F460FF1BC06F5F7F4F8F4F9F4FA2
:101DD00016C0882311F096E911C0772321F09EE800
:101DE000872F762F05C0662371F096E8862F70E066
:101DF00060E02AF09A95660F771F881FDAF7880F40
:101E00009695879597F90895990F0008550FAA0B95
:101E1000E0E8FEEF16161706E807F907C0F01216FD
:101E20001306E407F50798F0621B730B840B950B00
:101E300039F40A2661F0232B242B252B21F4089555
:101E40000A2609F4A140A6958FEF811D811D0895F2
:101E50000E943B0F0C94AC0F0E949E0F38F00E9422
:101E6000A50F20F0952311F00C94950F0C949B0F67
:101E700011240C94E00F0E94BD0F70F3959FC1F3E5
:101E8000950F50E0551F629FF001729FBB27F00D28
:101E9000B11D639FAA27F00DB11DAA1F649F66277D
:101EA000B00DA11D661F829F2227B00DA11D621FCC
:101EB000739FB00DA11D621F839FA00D611D221F86
:101EC000749F3327A00D611D231F849F600D211D6A
:101ED000822F762F6A2F11249F5750409AF0F1F0ED
:101EE00088234AF0EE0FFF1FBB1F661F771F881F56
:101EF00091505040A9F79E3F510580F00C94950FEA
:101F00000C94E00F5F3FE4F3983ED4F38695779509
:101F10006795B795F795E7959F5FC1F7FE2B880FFB
:101F2000911D9695879597F9089597F99F6780E891
:101F300070E060E008959FEF80EC089500240A941B
:101F40001616170618060906089500240A94121694
:101F50001306140605060895092E0394000C11F4C7
:101F6000882352F0BB0F40F4BF2B11F460FF04C074
:101F70006F5F7F4F8F4F9F4F089557FD9058440FCD
:101F8000551F59F05F3F71F04795880F97FB991FD8
:101F900061F09F3F79F08795089512161306140695
:101FA000551FF2CF4695F1DF08C016161706180622
:101FB000991FF1CF86957105610508940895E894FD
:101FC000BB2766277727CB0197F908952F923F9279
:101FD0004F925F926F927F928F929F92AF92BF9239
:101FE000CF92DF92EF92FF920F931F93CF93DF93E5
:101FF000CDB7DEB7CA1BDB0B0FB6F894DEBF0FBE42
:10200000CDBF09942A88398848885F846E847D848E
:102010008C849B84AA84B984C884DF80EE80FD8090
:102020000C811B81AA81B981CE0FD11D0FB6F89406
:10203000DEBF0FBECDBFED0108955058BB27AA27C4
:102040000E9435100C94AC0F0E949E0F38F00E9435
:10205000A50F20F039F49F3F19F426F40C949B0F40
:102060000EF4E095E7FB0C94950FE92F0E94BD0F4D
:1020700058F3BA17620773078407950720F079F4BD
:10208000A6F50C94DF0F0EF4E0950B2EBA2FA02DC1
:102090000B01B90190010C01CA01A0011124FF2715
:1020A000591B99F0593F50F4503E68F11A16F04010
:1020B000A22F232F342F4427585FF3CF469537950F
:1020C0002795A795F0405395C9F77EF41F16BA0BD4
:1020D000620B730B840BBAF09150A1F0FF0FBB1F82
:1020E000661F771F881FC2F70EC0BA0F621F731FCB
:1020F000841F48F4879577956795B795F7959E3F28
:1021000008F0B0CF9395880F08F09927EE0F9795B8
:10211000879508950E949E0F60F080E891E009F491
:102120009EEF0E94A50F28F040E851E071F45EEFA9
:102130000CC00C949B0F0C94DF0FE92FE0780E94E9
:10214000BD0F40F3092E052AB1F3261737074807BC
:10215000590738F00E2E07F8E02569F0E025E06415
:102160000AC0EF6307F8009407FADB01B9019D018B
:10217000DC01CA01AD01EF930E9413110E94AC0F64
:102180000E94CD105F91552339F02BED3FE049E4DB
:1021900050FD49EC0C941E100895DF93DD27B92FF4
:1021A000BF7740E85FE31616170648075B0718F489
:1021B000D92F0E9495119F938F937F936F930E94C5
:1021C0009D11E8E6F0E00E946E110E94AC0F2F9185
:1021D0003F914F915F910E943B0FDD2351F090584A
:1021E000A2EA2AED3FE049EC5FE3D0785D270E9448
:1021F0003510DF910C94AC0F0E9410110C94AC0FB1
:102200000E94A50F58F00E949E0F40F029F45F3FF6
:1022100029F00C94950F51110C94E00F0C949B0F26
:102220000E94BD0F68F39923B1F3552391F3951BD9
:10223000550BBB27AA2762177307840738F09F5FE7
:102240005F4F220F331F441FAA1FA9F335D00E2E54
:102250003AF0E0E832D091505040E695001CCAF7C1
:102260002BD0FE2F29D0660F771F881FBB1F261784
:1022700037074807AB07B0E809F0BB0B802DBF015B
:10228000FF2793585F4F3AF09E3F510578F00C942A
:10229000950F0C94E00F5F3FE4F3983ED4F38695DE
:1022A00077956795B795F7959F5FC9F7880F911D4B
:1022B0009695879597F90895E1E0660F771F881F37
:1022C000BB1F621773078407BA0720F0621B730BEA
:1022D000840BBA0BEE1F88F7E0950895DF93CF9338
:1022E0001F930F93FF92EF92DF927B018C01689412
:1022F00006C0DA2EEF010E943B0FFE01E894A59183
:102300002591359145915591A6F3EF010E94351025
:10231000FE019701A801DA9469F7DF90EF90FF9032
:102320000F911F91CF91DF9108959B01AC0160E067
:1023300070E080E89FE30C94FC109B01AC010C94CE
:10234000280FEE0FFF1F0590F491E02D09940F93D5
:102350001F93CF93DF938230910510F482E090E0D9
:10236000E091AD03F091AE0330E020E0B0E0A0E0FA
:10237000309799F42115310509F44AC0281B390B0F
:1023800024303105D8F58A819B816115710589F169
:10239000FB0193838283FE0111C040815181028140
:1023A000138148175907E0F04817590799F4109717
:1023B00061F012960C93129713961C933296CF01EC
:1023C000DF91CF911F910F9108950093AD0310936A
:1023D000AE03F4CF2115310551F04217530738F001
:1023E000A901DB019A01BD01DF01F801C1CFEF01B5
:1023F000F9CF9093AE038093AD03CDCFFE01E20FF2
:10240000F31F819391932250310939832883D7CFC9
:102410002091AB033091AC03232B41F420910301B5
:10242000309104013093AC032093AB032091010160
:10243000309102012115310541F42DB73EB740918D
:10244000050150910601241B350BE091AB03F0917F
:10245000AC03E217F307A0F42E1B3F0B2817390734
:1024600078F0AC014E5F5F4F2417350748F04E0FF0
:102470005F1F5093AC034093AB03819391939FCF25
:10248000F0E0E0E09CCFCF93DF930097E9F0FC0110
:10249000329713821282A091AD03B091AE03ED0189
:1024A00030E020E01097A1F420813181820F931F4A
:1024B0002091AB033091AC032817390709F061C0B4
:1024C000F093AC03E093AB03DF91CF910895EA0161
:1024D000CE17DF07E8F54A815B819E014115510562
:1024E000B1F7E901FB83EA8349915991C40FD51FE4
:1024F000EC17FD0761F4808191810296840F951F8E
:10250000E90199838883828193819B838A83F0E0A8
:10251000E0E012968D919C9113970097B9F52D915B
:102520003C911197CD010296820F931F2091AB032E
:102530003091AC032817390739F6309751F51092CE
:10254000AE031092AD03B093AC03A093AB03BCCF2A
:10255000D383C28340815181840F951FC817D90747
:1025600061F44E5F5F4F88819981480F591F5183F5
:1025700040838A819B81938382832115310509F0F1
:10258000B0CFF093AE03E093AD039ECFFD01DC012D
:10259000C0CF13821282D7CFB0E0A0E0E2EDF2E12B
:1025A0000C94E80F8C01009751F4CB010E94A71105
:1025B0008C01C801CDB7DEB7E0E10C940410FC013A
:1025C000E60FF71F9C0122503109E217F30708F4C8
:1025D0009DC0D901CD91DC911197C617D70798F00E
:1025E000C530D10530F3CE0104978617970708F35D
:1025F000C61BD70B2297C193D1936D937C93CF01C8
:102600000E944312D6CF5B01AC1ABD0A4C018C0E5E
:102610009D1EA091AD03B091AE03512C412CF12C25
:10262000E12C109731F58091AB039091AC038815A4
:10263000990509F05CC04616570608F058C080910D
:10264000010190910201009741F48DB79EB740912E
:10265000050150910601841B950BE817F90708F056
:1026600055C0F093AC03E093AB03F9017183608331
:10267000A0CF8D919C91119712966C901297139602
:102680007C901397A815B90559F56C0142E0C40E6A
:10269000D11CCA14DB0420F1AC014A195B09DA0130
:1026A0001296159780F06282738251834083D9011C
:1026B0006D937C93E114F10471F0D7011396FC93B0
:1026C000EE93129776CF22968C0F9D1FF90191837E
:1026D0008083F301EFCFF093AE03E093AD0369CFB6
:1026E0004816590608F42C017D01D3019ACFCB017D
:1026F0000E94A7117C01009749F0AE01B8010E9429
:102700008913C8010E944312870153CF10E000E0F3
:1027100050CFFB01DC0102C001900D9241505040AE
:10272000D8F70895FB01DC0101900D920020E1F73C
:062730000895F894FFCFAC
:102736000D0000AF038000000040001400540000AC
:10274600000000C20122014F010F0280015E0172EA
:102756000100000000BB048E041A0564048704749B
:10276600046504000000009F0522011A0519054CA6
:102776006973746F21000D0A00486F6C6120212176
:0C278600212100416E67756C6F3A000065
:00000001FF
